{
  "contractName": "mortal",
  "abi": [
    {
      "constant": false,
      "inputs": [],
      "name": "kill",
      "outputs": [],
      "payable": false,
      "stateMutability": "nonpayable",
      "type": "function"
    }
  ],
  "bytecode": "0x606060405260008054600160a060020a033316600160a060020a031990911617905560b98061002f6000396000f300606060405263ffffffff7c010000000000000000000000000000000000000000000000000000000060003504166341c0e1b58114603b57600080fd5b3415604557600080fd5b604b604d565b005b6000543373ffffffffffffffffffffffffffffffffffffffff90811691161415608b5760005473ffffffffffffffffffffffffffffffffffffffff16ff5b5600a165627a7a72305820264ba103f5009c30927affdf3d06f640b1494364d0371f4d117daf0fb8ce84060029",
  "source": "pragma solidity ^0.4.0;\n\nimport \"./owned.sol\";\ncontract mortal is owned {\n    function kill() {\n        if(msg.sender==owner) {\n            selfdestruct(owner);\n        }\n    }\n}",
  "sourcePath": "/Users/pulkit29/Documents/multiwallet/contracts/mortal.sol",
  "schemaVersion": "1.0.0",
  "updatedAt": "2017-11-12T07:45:08.374Z"
}