{
  "contractName": "multi",
  "abi": [
    {
      "constant": false,
      "inputs": [],
      "name": "kill",
      "outputs": [],
      "payable": false,
      "stateMutability": "nonpayable",
      "type": "function"
    },
    {
      "constant": false,
      "inputs": [
        {
          "name": "id",
          "type": "uint256"
        }
      ],
      "name": "confirm",
      "outputs": [
        {
          "name": "",
          "type": "bool"
        }
      ],
      "payable": false,
      "stateMutability": "nonpayable",
      "type": "function"
    },
    {
      "constant": false,
      "inputs": [
        {
          "name": "_to",
          "type": "address"
        },
        {
          "name": "amt",
          "type": "uint256"
        },
        {
          "name": "reason",
          "type": "string"
        }
      ],
      "name": "send_money",
      "outputs": [
        {
          "name": "",
          "type": "uint256"
        }
      ],
      "payable": false,
      "stateMutability": "nonpayable",
      "type": "function"
    },
    {
      "payable": true,
      "stateMutability": "payable",
      "type": "fallback"
    },
    {
      "anonymous": false,
      "inputs": [
        {
          "indexed": false,
          "name": "from",
          "type": "address"
        },
        {
          "indexed": false,
          "name": "amount",
          "type": "uint256"
        }
      ],
      "name": "rFund",
      "type": "event"
    },
    {
      "anonymous": false,
      "inputs": [
        {
          "indexed": false,
          "name": "frm",
          "type": "address"
        },
        {
          "indexed": false,
          "name": "to",
          "type": "address"
        },
        {
          "indexed": false,
          "name": "amount",
          "type": "uint256"
        },
        {
          "indexed": false,
          "name": "reason",
          "type": "string"
        },
        {
          "indexed": false,
          "name": "count",
          "type": "uint256"
        }
      ],
      "name": "prop_receive",
      "type": "event"
    },
    {
      "anonymous": false,
      "inputs": [
        {
          "indexed": false,
          "name": "from",
          "type": "address"
        },
        {
          "indexed": false,
          "name": "id",
          "type": "uint256"
        }
      ],
      "name": "confirmEvent",
      "type": "event"
    }
  ],
  "bytecode": "0x606060405260008054600160a060020a033316600160a060020a03199091161790556105f5806100306000396000f300606060405236156100545763ffffffff7c010000000000000000000000000000000000000000000000000000000060003504166341c0e1b581146100a4578063ba0179b5146100b7578063f67381bb146100cd575b60003411156100a2577f992acfba00b5e107e335f3b1bb9f3c4f589f1a7c13f5b2e795276ae5ca0fae8e3334604051600160a060020a03909216825260208201526040908101905180910390a15b005b34156100af57600080fd5b6100a2610144565b34156100c257600080fd5b6100a260043561016b565b34156100d857600080fd5b61013260048035600160a060020a03169060248035919060649060443590810190830135806020601f8201819004810201604051908101604052818152929190602084018383808284375094965061024b95505050505050565b60405190815260200160405180910390f35b60005433600160a060020a039081169116141561016957600054600160a060020a0316ff5b565b6000805433600160a060020a0390811691161415610247575060008181526001602052604090208054600160a060020a03161561024757600481015460ff1615156001146102475760048101805460ff191660019081179091558101546003820154600160a060020a039091169080156108fc0290604051600060405180830381858888f1505083547fb612cd24bea7d528211328b9602517f8b1d7de95fdec88e8c381db30a49bb2a99350600160a060020a03169150849050604051600160a060020a03909216825260208201526040908101905180910390a15b5050565b60008054819033600160a060020a039081169116141561036457600160a060020a03851684156108fc0285604051600060405180830381858888f1935050505090507f595be67197acf512a0fa56e4bb402491b0ded1b17f7aaf430f99a75243dff4e5338686866000604051600160a060020a03808716825285166020820152604081018490526080810182905260a06060820181815290820184818151815260200191508051906020019080838360005b838110156103155780820151838201526020016102fd565b50505050905090810190601f1680156103425780820380516001836020036101000a031916815260200191505b50965050505050505060405180910390a180151561035f57600080fd5b610526565b60028054600101905560a06040519081016040908152600160a060020a03338116835287166020808401919091528183018690526060830187905260006080840181905260025481526001909152208151815473ffffffffffffffffffffffffffffffffffffffff1916600160a060020a0391909116178155602082015160018201805473ffffffffffffffffffffffffffffffffffffffff1916600160a060020a039290921691909117905560408201518160020190805161042b92916020019061052e565b506060820151816003015560808201518160040160006101000a81548160ff0219169083151502179055509050507f595be67197acf512a0fa56e4bb402491b0ded1b17f7aaf430f99a75243dff4e533868686600254604051600160a060020a03808716825285166020820152604081018490526080810182905260a06060820181815290820184818151815260200191508051906020019080838360005b838110156104e25780820151838201526020016104ca565b50505050905090810190601f16801561050f5780820380516001836020036101000a031916815260200191505b50965050505050505060405180910390a160025491505b509392505050565b828054600181600116156101000203166002900490600052602060002090601f016020900481019282601f1061056f57805160ff191683800117855561059c565b8280016001018555821561059c579182015b8281111561059c578251825591602001919060010190610581565b506105a89291506105ac565b5090565b6105c691905b808211156105a857600081556001016105b2565b905600a165627a7a72305820272187db305bd595d312debde8b99c272d766fe306686b77534346050ca642840029",
  "source": "pragma solidity ^0.4.0;\nimport \"./mortal.sol\";\ncontract multi is mortal {\n    event rFund(address from,uint amount);\n    event prop_receive(address frm,address to,uint amount,string reason,uint count);\n    event confirmEvent(address from,uint id);\n     struct proposal{\n        address frm;\n        address to;\n        string res;\n        uint amt;\n        bool sent;\n    }\n    mapping(uint=>proposal) myprop;\n   \n    uint prop_count;\n    function send_money(address _to,uint amt,string reason) returns (uint) {\n        if(owner==msg.sender) {\n            bool sent=_to.send(amt);\n            prop_receive(msg.sender,_to,amt,reason,0);\n            if(!sent) {\n                throw;\n            }\n        }\n        else {\n            prop_count++;\n            myprop[prop_count]=proposal(msg.sender,_to,reason,amt,false);\n            prop_receive(msg.sender,_to,amt,reason,prop_count);\n            return prop_count;\n        }\n    }\n    function confirm(uint id) onlyowner {\n        proposal obj=myprop[id];\n        if(obj.frm!=address(0)) {\n            if(obj.sent!=true) {\n            obj.sent=true;\n            obj.to.send(obj.amt);\n                confirmEvent(obj.frm,id);\n            }\n        }\n        //confirmEvent(obj.frm,id);\n    }\n    function() payable {\n        if(msg.value>0) {\n            rFund(msg.sender,msg.value);\n        }\n    }\n}",
  "sourcePath": "/Users/pulkit29/Documents/multiwallet/contracts/multi.sol",
  "schemaVersion": "1.0.0",
  "updatedAt": "2017-11-12T09:51:14.838Z"
}